{
  "_format": "hh-sol-artifact-1",
  "contractName": "Voting",
  "sourceName": "contracts/Voting.sol",
  "abi": [
    {
      "inputs": [],
      "stateMutability": "nonpayable",
      "type": "constructor"
    },
    {
      "inputs": [
        {
          "internalType": "string",
          "name": "_candidate",
          "type": "string"
        }
      ],
      "name": "addCandidate",
      "outputs": [],
      "stateMutability": "nonpayable",
      "type": "function"
    },
    {
      "inputs": [],
      "name": "admin",
      "outputs": [
        {
          "internalType": "address",
          "name": "",
          "type": "address"
        }
      ],
      "stateMutability": "view",
      "type": "function"
    },
    {
      "inputs": [
        {
          "internalType": "uint256",
          "name": "",
          "type": "uint256"
        }
      ],
      "name": "candidates",
      "outputs": [
        {
          "internalType": "string",
          "name": "",
          "type": "string"
        }
      ],
      "stateMutability": "view",
      "type": "function"
    },
    {
      "inputs": [],
      "name": "getCandidates",
      "outputs": [
        {
          "internalType": "string[]",
          "name": "",
          "type": "string[]"
        }
      ],
      "stateMutability": "view",
      "type": "function"
    },
    {
      "inputs": [
        {
          "internalType": "string",
          "name": "_candidate",
          "type": "string"
        }
      ],
      "name": "getVotes",
      "outputs": [
        {
          "internalType": "uint256",
          "name": "",
          "type": "uint256"
        }
      ],
      "stateMutability": "view",
      "type": "function"
    },
    {
      "inputs": [
        {
          "internalType": "string",
          "name": "_candidate",
          "type": "string"
        }
      ],
      "name": "isValidCandidate",
      "outputs": [
        {
          "internalType": "bool",
          "name": "",
          "type": "bool"
        }
      ],
      "stateMutability": "view",
      "type": "function"
    },
    {
      "inputs": [
        {
          "internalType": "string",
          "name": "_candidate",
          "type": "string"
        }
      ],
      "name": "vote",
      "outputs": [],
      "stateMutability": "nonpayable",
      "type": "function"
    },
    {
      "inputs": [
        {
          "internalType": "address",
          "name": "",
          "type": "address"
        }
      ],
      "name": "voters",
      "outputs": [
        {
          "internalType": "bool",
          "name": "",
          "type": "bool"
        }
      ],
      "stateMutability": "view",
      "type": "function"
    },
    {
      "inputs": [
        {
          "internalType": "string",
          "name": "",
          "type": "string"
        }
      ],
      "name": "votes",
      "outputs": [
        {
          "internalType": "uint256",
          "name": "",
          "type": "uint256"
        }
      ],
      "stateMutability": "view",
      "type": "function"
    }
  ],
  "bytecode": "0x6080604052348015600f57600080fd5b50336000806101000a81548173ffffffffffffffffffffffffffffffffffffffff021916908373ffffffffffffffffffffffffffffffffffffffff1602179055506112ac8061005f6000396000f3fe608060405234801561001057600080fd5b50600436106100935760003560e01c8063805265e511610066578063805265e514610132578063a3ec138d14610162578063b99ef1fa14610192578063f851a440146101c2578063fc36e15b146101e057610093565b806306a49fce146100985780633477ee2e146100b6578063462e91ec146100e657806351b9887d14610102575b600080fd5b6100a06101fc565b6040516100ad919061089d565b60405180910390f35b6100d060048036038101906100cb9190610909565b6102d5565b6040516100dd9190610980565b60405180910390f35b61010060048036038101906100fb9190610ad7565b610381565b005b61011c60048036038101906101179190610ad7565b610447565b6040516101299190610b3b565b60405180910390f35b61014c60048036038101906101479190610ad7565b6104be565b6040516101599190610b65565b60405180910390f35b61017c60048036038101906101779190610bde565b610575565b6040516101899190610b3b565b60405180910390f35b6101ac60048036038101906101a79190610ad7565b610595565b6040516101b99190610b65565b60405180910390f35b6101ca6105c3565b6040516101d79190610c1a565b60405180910390f35b6101fa60048036038101906101f59190610ad7565b6105e7565b005b60606001805480602002602001604051908101604052809291908181526020016000905b828210156102cc57838290600052602060002001805461023f90610c64565b80601f016020809104026020016040519081016040528092919081815260200182805461026b90610c64565b80156102b85780601f1061028d576101008083540402835291602001916102b8565b820191906000526020600020905b81548152906001019060200180831161029b57829003601f168201915b505050505081526020019060010190610220565b50505050905090565b600181815481106102e557600080fd5b90600052602060002001600091509050805461030090610c64565b80601f016020809104026020016040519081016040528092919081815260200182805461032c90610c64565b80156103795780601f1061034e57610100808354040283529160200191610379565b820191906000526020600020905b81548152906001019060200180831161035c57829003601f168201915b505050505081565b60008054906101000a900473ffffffffffffffffffffffffffffffffffffffff1673ffffffffffffffffffffffffffffffffffffffff163373ffffffffffffffffffffffffffffffffffffffff161461040f576040517f08c379a000000000000000000000000000000000000000000000000000000000815260040161040690610ce1565b60405180910390fd5b6001819080600181540180825580915050600190039060005260206000200160009091909190915090816104439190610ead565b5050565b600080600090505b6001805490508110156104b35782805190602001206001828154811061047857610477610f7f565b5b9060005260206000200160405161048f9190611051565b6040518091039020036104a65760019150506104b9565b808060010191505061044f565b50600090505b919050565b60008060009054906101000a900473ffffffffffffffffffffffffffffffffffffffff1673ffffffffffffffffffffffffffffffffffffffff163373ffffffffffffffffffffffffffffffffffffffff161461054f576040517f08c379a0000000000000000000000000000000000000000000000000000000008152600401610546906110b4565b60405180910390fd5b60028260405161055f9190611110565b9081526020016040518091039020549050919050565b60036020528060005260406000206000915054906101000a900460ff1681565b6002818051602081018201805184825260208301602085012081835280955050505050506000915090505481565b60008054906101000a900473ffffffffffffffffffffffffffffffffffffffff1681565b600360003373ffffffffffffffffffffffffffffffffffffffff1673ffffffffffffffffffffffffffffffffffffffff16815260200190815260200160002060009054906101000a900460ff1615610674576040517f08c379a000000000000000000000000000000000000000000000000000000000815260040161066b90611173565b60405180910390fd5b61067d81610447565b6106bc576040517f08c379a00000000000000000000000000000000000000000000000000000000081526004016106b3906111df565b60405180910390fd5b6001600360003373ffffffffffffffffffffffffffffffffffffffff1673ffffffffffffffffffffffffffffffffffffffff16815260200190815260200160002060006101000a81548160ff0219169083151502179055506002816040516107249190611110565b908152602001604051809103902060008154809291906107439061122e565b919050555050565b600081519050919050565b600082825260208201905092915050565b6000819050602082019050919050565b600081519050919050565b600082825260208201905092915050565b60005b838110156107b1578082015181840152602081019050610796565b60008484015250505050565b6000601f19601f8301169050919050565b60006107d982610777565b6107e38185610782565b93506107f3818560208601610793565b6107fc816107bd565b840191505092915050565b600061081383836107ce565b905092915050565b6000602082019050919050565b60006108338261074b565b61083d8185610756565b93508360208202850161084f85610767565b8060005b8581101561088b578484038952815161086c8582610807565b94506108778361081b565b925060208a01995050600181019050610853565b50829750879550505050505092915050565b600060208201905081810360008301526108b78184610828565b905092915050565b6000604051905090565b600080fd5b600080fd5b6000819050919050565b6108e6816108d3565b81146108f157600080fd5b50565b600081359050610903816108dd565b92915050565b60006020828403121561091f5761091e6108c9565b5b600061092d848285016108f4565b91505092915050565b600082825260208201905092915050565b600061095282610777565b61095c8185610936565b935061096c818560208601610793565b610975816107bd565b840191505092915050565b6000602082019050818103600083015261099a8184610947565b905092915050565b600080fd5b600080fd5b7f4e487b7100000000000000000000000000000000000000000000000000000000600052604160045260246000fd5b6109e4826107bd565b810181811067ffffffffffffffff82111715610a0357610a026109ac565b5b80604052505050565b6000610a166108bf565b9050610a2282826109db565b919050565b600067ffffffffffffffff821115610a4257610a416109ac565b5b610a4b826107bd565b9050602081019050919050565b82818337600083830152505050565b6000610a7a610a7584610a27565b610a0c565b905082815260208101848484011115610a9657610a956109a7565b5b610aa1848285610a58565b509392505050565b600082601f830112610abe57610abd6109a2565b5b8135610ace848260208601610a67565b91505092915050565b600060208284031215610aed57610aec6108c9565b5b600082013567ffffffffffffffff811115610b0b57610b0a6108ce565b5b610b1784828501610aa9565b91505092915050565b60008115159050919050565b610b3581610b20565b82525050565b6000602082019050610b506000830184610b2c565b92915050565b610b5f816108d3565b82525050565b6000602082019050610b7a6000830184610b56565b92915050565b600073ffffffffffffffffffffffffffffffffffffffff82169050919050565b6000610bab82610b80565b9050919050565b610bbb81610ba0565b8114610bc657600080fd5b50565b600081359050610bd881610bb2565b92915050565b600060208284031215610bf457610bf36108c9565b5b6000610c0284828501610bc9565b91505092915050565b610c1481610ba0565b82525050565b6000602082019050610c2f6000830184610c0b565b92915050565b7f4e487b7100000000000000000000000000000000000000000000000000000000600052602260045260246000fd5b60006002820490506001821680610c7c57607f821691505b602082108103610c8f57610c8e610c35565b5b50919050565b7f4f6e6c792061646d696e2063616e206164642063616e64696461746573000000600082015250565b6000610ccb601d83610936565b9150610cd682610c95565b602082019050919050565b60006020820190508181036000830152610cfa81610cbe565b9050919050565b60008190508160005260206000209050919050565b60006020601f8301049050919050565b600082821b905092915050565b600060088302610d637fffffffffffffffffffffffffffffffffffffffffffffffffffffffffffffffff82610d26565b610d6d8683610d26565b95508019841693508086168417925050509392505050565b6000819050919050565b6000610daa610da5610da0846108d3565b610d85565b6108d3565b9050919050565b6000819050919050565b610dc483610d8f565b610dd8610dd082610db1565b848454610d33565b825550505050565b600090565b610ded610de0565b610df8818484610dbb565b505050565b5b81811015610e1c57610e11600082610de5565b600181019050610dfe565b5050565b601f821115610e6157610e3281610d01565b610e3b84610d16565b81016020851015610e4a578190505b610e5e610e5685610d16565b830182610dfd565b50505b505050565b600082821c905092915050565b6000610e8460001984600802610e66565b1980831691505092915050565b6000610e9d8383610e73565b9150826002028217905092915050565b610eb682610777565b67ffffffffffffffff811115610ecf57610ece6109ac565b5b610ed98254610c64565b610ee4828285610e20565b600060209050601f831160018114610f175760008415610f05578287015190505b610f0f8582610e91565b865550610f77565b601f198416610f2586610d01565b60005b82811015610f4d57848901518255600182019150602085019450602081019050610f28565b86831015610f6a5784890151610f66601f891682610e73565b8355505b6001600288020188555050505b505050505050565b7f4e487b7100000000000000000000000000000000000000000000000000000000600052603260045260246000fd5b600081905092915050565b60008190508160005260206000209050919050565b60008154610fdb81610c64565b610fe58186610fae565b94506001821660008114611000576001811461101557611048565b60ff1983168652811515820286019350611048565b61101e85610fb9565b60005b8381101561104057815481890152600182019150602081019050611021565b838801955050505b50505092915050565b600061105d8284610fce565b915081905092915050565b7f4f6e6c792061646d696e2063616e207669657720766f74657300000000000000600082015250565b600061109e601983610936565b91506110a982611068565b602082019050919050565b600060208201905081810360008301526110cd81611091565b9050919050565b600081905092915050565b60006110ea82610777565b6110f481856110d4565b9350611104818560208601610793565b80840191505092915050565b600061111c82846110df565b915081905092915050565b7f596f75206861766520616c726561647920766f74656400000000000000000000600082015250565b600061115d601683610936565b915061116882611127565b602082019050919050565b6000602082019050818103600083015261118c81611150565b9050919050565b7f496e76616c69642063616e646964617465000000000000000000000000000000600082015250565b60006111c9601183610936565b91506111d482611193565b602082019050919050565b600060208201905081810360008301526111f8816111bc565b9050919050565b7f4e487b7100000000000000000000000000000000000000000000000000000000600052601160045260246000fd5b6000611239826108d3565b91507fffffffffffffffffffffffffffffffffffffffffffffffffffffffffffffffff820361126b5761126a6111ff565b5b60018201905091905056fea2646970667358221220cea41670082b7371c0769615e91bdef345e9893dce775543e1804f194265608664736f6c634300081c0033",
  "linkReferences": {},
  "deployedLinkReferences": {}
}